:02000002D0002C
:1040000000400D00386F0D00000006000C00050197
:0840100004017E050000000020
:04401800146B0D0018
:10401C0009480A49884208B505D0094A824202D0AB
:10402C00121A02F009FD0748074A0021121A02F081
:10403C000EFD014808BD00BF4CE30320A86E0D0027
:10404C00B4E30320B4E30320F0E7032070B500F0E1
:10405C00DBFE074C074BE41AA40800251E46A542BC
:10406C0004D056F8253098470135F8E770BD00BFED
:10407C009C6E0D005C6E0D0000F016B808B500F0DB
:10408C00C3F8BDE8084000F08DBE00F0C1BB00F0E5
:10409C00C7BB00F0C5BB0078B0FA80F04009704790
:1040AC000123037070470000014800F07AB900BF8B
:1040BC00C1E3032010B5124C204600F009F907EEBD
:1040CC00900A104BF8EE677A2046C3ED007A00F0A8
:1040DC0002F907EE900A0C4BF8EE677A2046C3ED16
:1040EC00007A00F0F2F807EE900A9FED087A084B80
:1040FC00F8EE676AC6EE877AC3ED007A10BD00BF92
:10410C00C1E30320BCE30320C4E303200000C84246
:10411C00B8E3032010B594B0314908A800F0EBFCCB
:10412C00304B062193ED000A04A800F008FD04A909
:10413C0008A800F035FD2C4900F03EFD2B4900F09D
:10414C003BFD2B4B044693ED000A06210CA800F016
:10415C00F6FC0CA9204600F023FD234900F02CFDB1
:10416C00244900F029FD244B044693ED000A062156
:10417C0010A800F0E4FC10A9204600F011FD1F4926
:10418C0000F01AFD1E4B02681B788DF800301D499B
:10419C003C2302A800F094FF039C7CB16368013BB4
:1041AC0063605BB9236820469B689847A368013B12
:1041BC00A3601BB923682046DB68984710A800F061
:1041CC0053FC0CA800F050FC04A800F04DFC08A80F
:1041DC0000F04AFC47F2305000F096FD14B010BDD0
:1041EC00286B0D00BCE30320356B0D00386B0D0004
:1041FC00C4E30320426B0D00B8E303204D6B0D00AC
:10420C00C0E30320506B0D0008B5FFF753FFBDE86A
:10421C000840FFF77FBF000008B5054B01221A705C
:10422C0000F052F90348BDE8084000F005B800BFA3
:10423C00C0E30320C1E3032060230370704738B54B
:10424C0004460D4601F056FC217801F093FA01F07A
:10425C0051FC036829469B68984701F04BFC01F020
:10426C0091FA01F047FC0122217801F080FA01F06B
:10427C0041FC03685B699847C0B238BD38B5044649
:10428C000D4601F037FC217801F074FA01F032FC94
:10429C00036829469B68984701F02CFC01F072FAE0
:1042AC0001F028FC2178022201F061FA01F022FCD5
:1042BC0003685B699847044601F01CFC03685B6962
:1042CC00984744EA002080B238BD2C21FFF7D6BFB6
:1042DC002221FFF7D3BF2421FFF7D0BF70B50646CC
:1042EC0014460D4601F006FC317801F043FA01F05A
:1042FC0001FC036829469B68984701F0FBFB0368A7
:10430C0021469B68984701F0F5FBBDE8704001F031
:10431C0039BA10B5002204460821FFF7DFFF20460A
:10432C0000220921FFF7DAFF204600220421FFF7C3
:10433C00D5FF204600220521FFF7D0FF20460022A2
:10434C000621FFF7CBFF204600220321FFF7C6FF13
:10435C002046FF222121FFF7C1FF01221821204610
:10436C00FFF7BCFF0A2000F0CFFC204617220721E4
:10437C00FFF7B4FF0A20BDE8104000F0C5BC38B50B
:10438C0004460D461721FFF7A9FF204645F0A00271
:10439C001821FFF7A3FF20462E21BDE83840FFF778
:1043AC004EBF10B5044601F0A5FB01F0D1F9002178
:1043BC002046FFF744FF452872D12046FFF7A9FF9E
:1043CC00204629221321FFF789FF20468922142138
:1043DC00FFF784FF204602221521FFF77FFF2046BE
:1043EC0000221621FFF77AFFB12201212046FFF7A8
:1043FC00C6FF204601220321FFF770FF2046012251
:10440C000421FFF76BFF204603220F21FFF766FF05
:10441C00032207212046FFF7B2FF0122022120468A
:10442C00FFF7ADFF00220B212046FFF7A8FF7022FB
:10443C000A212046FFF7A3FF24220C212046FFF778
:10444C009EFF00220E212046FFF799FF00221E211D
:10445C002046FFF794FF70221D212046FFF78FFFA7
:10446C0020221F212046FFF78AFF0022112120461F
:10447C00FFF785FF702210212046FFF780FF2022D6
:10448C0012212046FFF77BFF2046FF220821FFF771
:10449C0025FF20460F221821FFF720FF012010BD19
:1044AC00002010BD00F010B808B5024B1B689B68CB
:1044BC00019308BD6802030008B5024B1B68DB685A
:1044CC00019308BD6802030008B5024B1B681B680A
:1044DC00019308BD2C02030008B5024B1B68DB6975
:1044EC00019308BD3002030008B5024B1B685B68E2
:1044FC00019308BD1802030008B5024B1B685B69E9
:10450C00019308BD1802030008B5024B1B689B6899
:10451C00019308BD4802030008B5024B1B681B69D8
:10452C00019308BD4802030008B5024B1B685B6988
:10453C00019308BD4802030008B5024B1B681B6BB6
:10454C00019308BD4802030008B5024B1B685B6C65
:10455C00019308BD4802030008B5024B1B685B6958
:10456C00019308BD6402030008B5024B1B681B686D
:10457C00019308BD3C02030008B5024B1B68DB68C5
:10458C00019308BD3C02030008B5024B1B681B6974
:10459C00019308BD3C02030008B5024B1B685B6924
:1045AC00019308BD3C02030008B5024B1B689B69D4
:1045BC00019308BD3C02030008B5024B1B68DB6984
:1045CC00019308BD3C02030008B5024B1B689B6AB3
:1045DC00019308BD3C02030008B5024B1B68DB6865
:1045EC00019308BD2802030008B5024B1B685B69E8
:1045FC00019308BD2802030008B5024B1B689B6998
:10460C00019308BD2802030008B5024B1B68DB6947
:10461C00019308BD2802030008B5024B1B681B6AF6
:10462C00019308BD2802030008B5024B1B685B6AA6
:10463C00019308BD2802030008B5024B1B689B6A56
:10464C00019308BD2802030008B5024B1B68DB6A06
:10465C00019308BD2802030008B5024B1B681B6BB5
:10466C00019308BD2802030008B5024B1B681B6CA4
:10467C00019308BD2802030008B5024B1B681B6898
:10468C00019308BD4C02030008B5024B1B681B6963
:10469C00019308BD4C02030008B5024B1B685B6913
:1046AC00019308BD4C02030008B5024B1B689B69C3
:1046BC00019308BD4C02030008B5024B1B68DB6973
:1046CC00019308BD4C02030008B5024B1B681B6A22
:1046DC00019308BD4C02030008B5024B1B685B68D4
:1046EC00019308BD2002030008B5024B1B685B69EF
:1046FC00019308BD2002030008B5024B1B68DB6C5C
:10470C00019308BD2002030008B5024B1B685B6DCA
:10471C00019308BD2002030008B5034B1B68D3F8B6
:10472C008830019308BD00002002030008B5034B3C
:10473C001B68D3F89430019308BD000020020300DD
:10474C0008B5024B1B685B68019308BD400203006F
:10475C0008B5024B1B689B68019308BD400203001F
:10476C0008B5024B1B68DB68019308BD40020300CF
:10477C0008B5024B1B681B69019308BD400203007E
:10478C0008B5024B1B685B69019308BD400203002E
:10479C0008B5024B1B689B69019308BD40020300DE
:1047AC0008B5024B1B68DB69019308BD400203008E
:1047BC0008B5024B1B681B6A019308BD400203003D
:1047CC0008B5024B1B681B6B019308BD400203002C
:1047DC0008B5024B1B685B6B019308BD40020300DC
:1047EC0008B5024B1B685B69019308BD44020300CA
:1047FC0008B5024B1B681B6A019308BD44020300F9
:10480C0008B5024B1B68DB6B019308BD4402030027
:10481C0008B5024B1B681B68019308BD1C02030002
:10482C0008B5024B1B685B68019308BD1C020300B2
:10483C0008B5024B1B689B68019308BD1C02030062
:10484C0008B5024B1B68DB6A019308BD1C02030010
:10485C0008B5024B1B681B6B019308BD1C020300BF
:10486C00002211464068FFF7A3BF002211464068A2
:10487C00FFF7AEBF00224068FFF7A2BF002281F015
:10488C0001014068FFF78CBF00231A4619464068A7
:10489C00FFF77EBF00231A4619464068FFF770BF2A
:1048AC00002211464068FFF763BF002211464068A2
:1048BC00FFF74EBF002202214068FFF751BF0023D3
:1048CC001A464068FFF73CBF024B03225A60024A6B
:1048DC001A607047C8E303205C6B0D00704710B57D
:1048EC001021044601F02BF9204610BD70B5084B81
:1048FC000360044600250E4640F80C5FFFF71CFED3
:10490C0030462671FFF7E8FDA560204670BD00BF5C
:10491C00906B0D00044B00204FF6FF7218705880FE
:10492C009A80FFF7D9BE00BFD0E3032010B5044630
:10493C0002F0E1F8013823182046984206D202789A
:10494C00197800F8011B03F80129F6E710BD70B5C2
:10495C000C46911E222920D82546294610B92344FD
:10496C0030220EE0B0FBF2F602FB1600C1B205F8E5
:10497C00011B092894BF3031573105F8011C304612
:10498C00EBE7994202D201F8012BFAE7002320460B
:10499C000B70FFF7CBFF204670BD002070BD0000F0
:1049AC002DE9F14F59EC108B07460E4600220023DF
:1049BC0010EE100A494601F039FE28B109F1004306
:1049CC0099462D2333700136002301240A22D9B2D3
:1049DC008F4202D954430133F9E7204601F04EFBD4
:1049EC0042464B4601F0B0FB82468B4601F07EFE00
:1049FC008046894601F072FB02460B4650465946EA
:104A0C0001F0EEF90022174B01F024FE18B118F159
:104A1C00010849F10009E51722462B464046494654
:104A2C0001F04CFE01230A223146FFF790FFAFB193
:104A3C00304602F060F82E233354013006442246EF
:104A4C002B464046494601F039FE3B46104631465E
:104A5C000A2201B0BDE8F04FFFF779BF01B0BDE805
:104A6C00F08F00BF0000E03F10B504460068FFF770
:104A7C00D7FE204610BD10B50446006808B1FFF7FC
:104A8C00CFFE00232360A360636010BD38B50446DD
:104A9C000D4600680131FFF7CBFE10B184E8210010
:104AAC00012038BD10B50368044613B143688B422E
:104ABC0007D22046FFF7EAFF20B1A3680BB92268A2
:104ACC001370012010BD70B50E46114604461546F4
:104ADC00FFF7E8FF18B92046FFF7CDFF09E02A469B
:104AEC003146A560206801F0A7FF2268A368002169
:104AFC00D154204670BD38B5002304460360436092
:104B0C00836003730D4639B1084601F0F4FF294662
:104B1C0002462046FFF7D7FF204638BD38B505467C
:104B2C000C4641B1084601F0E6FF214602462846F4
:104B3C00FFF7C9FF01E0FFF79EFF284638BD30B5EF
:104B4C0000238BB00360436083600373044610EE54
:104B5C00100ACDB201F0A4FA41EC100B01A92846C1
:104B6C00FFF71EFF01A92046FFF7D8FF20460BB028
:104B7C0030BD70B504460E4609B9002070BD6AB14F
:104B8C008368D5182946FFF78DFF0028F5D02068DB
:104B9C00A3683146184401F08BFFA560012070BD5D
:104BAC0010B58A6809680446FFF7E3FF10B9204680
:104BBC00FFF761FF204610BD38B504460D4641B1E4
:104BCC00084601F098FF294602462046FFF7D1FF20
:104BDC0010B92046FFF74FFF204638BD10B50368CB
:104BEC0004469B689847A368013BA3602BB92368D4
:104BFC002046DB68BDE81040184710BD0B68036009
:104C0C0013B15A6801325A60704710B504460068F7
:104C1C0028B14368013B43600BB9FFF7DFFF204627
:104C2C0010BD0000024800230360FFF78DBC00BFDD
:104C3C00D8E30320F8B506460D468F180024BD4274
:104C4C000CD0336815F8011B9B6830469847002838
:104C5C0001DB0444F3E7002C08BF04462046F8BDF2
:104C6C0070B505460C46084649B101F044FF2B6867
:104C7C00024621462846DB68BDE87040184770BDE7
:104C8C0003689B68184730B58BB00B4600218DF834
:104C9C002410012A98BF0A220DF12304B3FBF2F56C
:104CAC0005FB123303F0FF03092B94BF303337336A
:104CBC00DBB2214604F801392B46002DEED1FFF76B
:104CCC00CFFF0BB030BD10B42AB903685DF8044BAC
:104CDC009B68C9B21847D2B25DF8044BFFF7D3BF3B
:104CEC00FFF7F1BF014B024A1A607047DCE3032067
:104CFC000B6C0D00024B1A68024B1A60704700BF18
:104D0C004CE30320E0E303200021FFF7EDBC10B5DA
:104D1C008368044613B1032201469847204610BD10
:104D2C0010B50446FFF7F3FF204610BD13B50B4634
:104D3C00044603C88DE8030093E8030084E80300ED
:104D4C009DE8030083E8030002B010BD0348044A49
:104D5C0004490023836000F0EDBE00BFE4E30320B0
:104D6C00B4E303202D4D0D0008B50C4B33B100F00E
:104D7C00F9FB03681B699847002809DC084B63B1F1
:104D8C0000F06EFC03681B699847002803DC08BD23
:104D9C00AFF30080F2E7AFF3008008BD0000000025
:104DAC000000000008B5FFF7DFFFFFF7A5FB014B84
:104DBC00186008BD34E7032007B5002300931A469A
:104DCC006FF07701FFF7B2FC03B05DF804FB000055
:104DDC0007B543880A2B08D0502B09D1094B1B6807
:104DEC003BB103B05DF804EB1847FFF7E5FF06E0B5
:104DFC00002300931A466FF07701FFF797FC03B07E
:104E0C005DF804FBF4E3032010B5FFF76DFB0446DB
:104E1C0001F026FE074B13B12046AFF300800021B2
:104E2C000448FFF7EDFC00210348BDE81040FFF7F4
:104E3C0073BC00BF00000000DD4D0D00704700206A
:104E4C00704710B51021044600F079FE204610BDC5
:104E5C0008B508B1FFF7F5FF08BD0022026010B5D8
:104E6C004FF69C728280B1F9044084808A8002687B
:104E7C000C6804600A6010BD10B504460068FFF7AA
:104E8C00CFFC204610BD38B5C468F4B12378022B92
:104E9C0003D104F10C00FFF7EFFF656835B128462C
:104EAC00FFF735FF1021284600F049FEA56835B103
:104EBC002846FFF72CFF1021284600F040FE204624
:104ECC001421BDE8384000F03ABE38BD13B5044695
:104EDC0091E8050000234B600B602060626001A824
:104EEC0001930093FFF791FE204602B010BDF7B579
:104EFC000C4602AD54F8043B45F8083D06460F46F7
:104F0C0001A82146FFF77AFE29463046FFF7DEFF5F
:104F1C0001A8FFF77AFE2046FFF777FE38460821F6
:104F2C0000F00DFE304603B0F0BD000038B5002394
:104F3C000446036010200D46FFF7A7F828B10123A3
:104F4C0043608360024B0360C5602060204638BD1F
:104F5C00AC6C0D00826810B50AB900F0F2FDC368A4
:104F6C00BDE81040184708B5006800F11001FFF7C4
:104F7C00F1FF08BD826810B50AB900F0E2FDC36804
:104F8C00BDE81040184708B5006800F11001FFF7A4
:104F9C00F1FF08BD38B5002383608B6804460D46CD
:104FAC002BB102229847EB68E360AB68A360204604
:104FBC0038BD0000F0B589B004686846FFF74DFFB6
:104FCC0000238DF808304FF00202D4E84F3F002B3D
:104FDC0003D1C4E8412F0029F7D102D08DF8083055
:104FEC0063E014F10C0503D069462846FFF735FF42
:104FFC00BFF35F8F01236370002004F10803BFF33C
:10500C005F8F53E8006F43E80002002AF9D1BFF329
:10501C005F8F002E49D0FFF76FFB20B12946304639
:10502C00FFF798FF3AE0314602A8FFF7B3FFE068BC
:10503C00B4F9105008B101F043FD06901020ADF802
:10504C001C50FFF722F80546E8B1002787601820AE
:10505C00FFF71BF8044688B10146876002A8FFF7EA
:10506C0065FE049BA268A360059B049206A9E268F6
:10507C00E36004F110000592FFF7EFFE0D4BEB60BF
:10508C000D4B2C60AB6006A8FFF7F6FE02A8FFF7ED
:10509C003EFE002229460948FFF736FB3046FFF753
:1050AC0036FE1021304600F04AFD6846FFF7E4FE5C
:1050BC0009B0F0BD734F0D00E9510D00B9560D004C
:1050CC002DE9F04F8BB006460F46904699469DF859
:1050DC0050A0FFF785FB07AD834630BB4FF62E7310
:1050EC00059005A92846ADF81830FFF7B6FE142038
:1050FC00FEF7CBFF044658B1022303700123437023
:10510C00C0F804B0C0F808B029460C30FFF7A5FE73
:10511C003046214640F8044BFFF708FF2846FFF7BE
:10512C00ABFE05A8FFF7A8FE52E000240C231420C8
:10513C006C60AC600793FEF7A8FF014618B10470D1
:10514C0044704460846004A80391FFF7EFFE224B87
:10515C0008930820FEF799FF044628B1039B40F8FA
:10516C00043B04A9FFF74AFD00955FFA8AF34A460F
:10517C00414638460994FFF73BFB20B9039B5B780B
:10518C0003F0FF0283B1039B059304A906A8FFF764
:10519C0035FD05A93046FFF799FE06A8FFF735FD4A
:1051AC0004A8FFF732FD13E04FF69C7305A903A882
:1051BC000592ADF81830FFF7FDFE05A8FFF75CFE71
:1051CC0005A80999FFF793FE06A8FFF71EFDDAE77D
:1051DC0030460BB0BDE8F08F59530D00022AF8B5DC
:1051EC00044606D0032A17D0012A22D10B6803608B
:1051FC001FE018200E68FEF748FF054650B13146F7
:10520C00FFF7C8FE3069B6F9147008B101F058FC0C
:10521C002861AF8225600CE0046854B104F11000E1
:10522C00FFF72AFE2046FFF772FD1821204600F0FA
:10523C0086FC0020F8BD38B5002383608B680446DB
:10524C000D462BB102229847EB68E360AB68A36074
:10525C00204638BD022A70B5044606D0032A11D068
:10526C00012A18D10B68036015E014200E68FEF7B4
:10527C000CFF054620B13146FFF7DDFF337C2B7464
:10528C00256008E0046834B12046FFF740FD142186
:10529C00204600F054FC002070BD0000F0B5002347
:1052AC0087B00C46BFF35F8F50E8006F40E80032C8
:1052BC00002AF9D1BFF35F8F002E3FD01846FFF7BD
:1052CC001BFA074620B121463046FFF753FE2EE06D
:1052DC00314601A8FFF7AFFF23788DF8143010206A
:1052EC00FEF7D3FE0546D0B187601420FEF7CDFE45
:1052FC00044678B18760014601A8FFF717FD039BB0
:10530C00A268A360049B0392E268E3609DF81430EA
:10531C00049223740A4BEB600A4B2C60AB6001A81F
:10532C00FFF7F5FC002229460748FFF7EDF9304658
:10533C00FFF7EDFC1021304600F001FC07B0F0BD8A
:10534C00934F0D0061520D00B9560D0030B585B06C
:10535C0004460D4668461146FFF7C9FD7CB124B2E0
:10536C0028460DB101F0ACFB029002A96846ADF8DD
:10537C000C40FFF71FFE02A8FFF77EFD1DE0009812
:10538C008DF808404FF00102D0E84F3FA34203D103
:10539C00C0E8412F0029F7D102D08DF808300CE07D
:1053AC0010F10C014FF0010318BF0373BFF35F8FB3
:1053BC00043000F8033CFFF771FF01A8FFF725FC50
:1053CC0005B030BD704710B51821044600F0B7FB8E
:1053DC00204610BDF0B5037D062B8DB00E4600F1B6
:1053EC0004074FF0000402D000F1080518E00CADE2
:1053FC00394605F8304D2F232A460A20FFF7ACF822
:10540C00284601F078FB33680246DB6829463046B3
:10541C0098470FE024B12E213046FFF731FC0444AD
:10542C0015F8011D0A223046FFF75AFCBD42044410
:10543C00F0D120460DB0F0BD10B5054B044611223D
:10544C0040F8043B002101F002FB204610BD00BFD8
:10545C00C86C0D000346074A10B543F8042B01F144
:10546C00100251F8044B43F8044B9142F9D10A78DD
:10547C001A7010BDC86C0D0010B59DF8084044EAB8
:10548C00032343EA024242EA0161042341600375AB
:10549C0010BD37B50D788B784A78C97800912946BC
:1054AC00FFF7EAFF03B030BD41747047704708B591
:1054BC000021007CFFF7F8F830EA200028BF4FF0FD
:1054CC00FF3008BD08B50121007CFFF7EDF830EA8C
:1054DC00200028BF4FF0FF3008BD08B5007CFFF757
:1054EC00DBF820EAE07008BD08B5007CFFF7CCF8CB
:1054FC0020EAE07008BD007CFFF7E6B810B5142177
:10550C00044600F01CFB204610BD38B50446007C58
:10551C000D46FFF7C1F8002801DC607C28B1294654
:10552C00207CFFF7C9F820EAE07038BD10B50446BE
:10553C00002363604FF47A73A360054B236001234F
:10554C000846217463741146FFF796F8204610BD87
:10555C00DC6C0D0010B514220446002101F077FA22
:10556C00204610BD30B50E4D87B001A8FFF7F2FFF5
:10557C00296811F0010410D12846FEF78CFD60B1AA
:10558C0001AA21460748FFF7D1FF2846FEF788FD00
:10559C00054A0649034800F0CDFA024807B030BD71
:1055AC00F8E30320FCE30320B4E30320B9540D001B
:1055BC0070474174704708B5007CFFF705F820EA86
:1055CC00E07008BD08B5007CFEF7DEFF20EAE07055
:1055DC0008BD08B5007CFEF7E7FF30EA200028BFC5
:1055EC004FF0FF3008BD08B5007CFEF7D5FF30EA60
:1055FC00200028BF4FF0FF3008BD007CFEF7DCBF59
:10560C0010B51421044600F09AFA204610BD70B56E
:10561C00457C04460E4625B9007CFEF7D5FF0028D4
:10562C0005DD3146207CBDE87040FEF7A5BF28465D
:10563C0070BD000010B50446084611460022626099
:10564C004FF47A72A260054A2260012220746274BF
:10565C001A46FEF789FF204610BD00BF0C6D0D00E9
:10566C0038B50C4D296811F0010411D12846FEF70C
:10567C0012FD68B1084A094B09482146FFF7DAFFC9
:10568C002846FEF70DFD074A0749054800F052FA77
:10569C00034838BDA8E40320ACE4032024E4032031
:1056AC0010E40320B4E30320BD550D0010B583684E
:1056BC0004460BB900F045FAC3689847A3681BB1C0
:1056CC00032221462046984720461021BDE8104071
:1056DC0000F035BA7047F8B5064615460C468F18DB
:1056EC00BC4206D0336814F8011B9B6830469847BF
:1056FC00F6E72846F8BD0022007CFEF78DBF00219E
:10570C00007CFEF791BF0021007CFEF795BF0021C5
:10571C00007CFEF799BF0021007CFEF79DBF10B501
:10572C001421044600F00BFA204610BD10B50446B7
:10573C004FF47A730846A3600021044B2074616017
:10574C002360FEF791FF204610BD00BF3C6D0D009D
:10575C0000231A461946007CFEF73EBF13B5002401
:10576C00007C0094FEF740FFC0B202B010BD0123D4
:10577C00FFF7F4BF0022007CFEF73EBF0022007C46
:10578C00FEF742BF0121FFF7F9BF00221146406826
:10579C00FFF70EB8002211464068FFF719B8002237
:1057AC004068FFF70DB8002281F001014068FEF758
:1057BC00F7BF00231A4601214068FEF7E9BF00231A
:1057CC001A4619464068FEF7DBBF002211464068B6
:1057DC00FEF7CEBF002211464068FEF7B9BF00228B
:1057EC0002214068FEF7BCBF00231A464068FEF752
:1057FC00A7BF38B5054688B104684CB1A3681BB186
:10580C0003222146204698471021204600F097F9A4
:10581C0028461421BDE8384000F091B938BD10B1CC
:10582C0003685B681847704710B503680446BBB142
:10583C005868FEF769FE78B923685A7C12B9586823
:10584C00FEF76AFE23685868FEF76EFE2068002398
:10585C00236028B1FFF7CDFF206808B1FFF7C9FF1F
:10586C00204610BD38B50C4B03600446D0F8CC0173
:10587C0008B1FEF70EFCD4F8C45135B12846FFF739
:10588C00D3FF0421284600F05AF9A06808B1FFF7AD
:10589C00C6FF204638BD00BF646D0D0038B50E4CF8
:1058AC000E4B23600025022304F5E4706360A560B1
:1058BC00C4F8C451C4F8C851FEF746FE084BC4F8EE
:1058CC00CC5184F8D05123602046064A0649BDE8E5
:1058DC00384000F02FB900BF30E50320CC6D0D002F
:1058EC00646D0D00B4E3032071580D0000221146C5
:1058FC004068FEF73DBF002211464068FEF758BFD6
:10590C00002211464068FEF763BF00224068FEF794
:10591C0057BF002281F001014068FEF741BF002310
:10592C001A4619464068FEF733BF00231A4619463B
:10593C004068FEF725BF002211464068FEF708BFFD
:10594C00002202214068FEF70BBF00231A46406874
:10595C00FEF7F6BE024B04225A60024A1A607047E8
:10596C0004E70320986D0D0000231A464068FEF7EB
:10597C00E7BE002202214068FEF7F2BE002211466B
:10598C004068FEF7E5BE002211464068FEF7F0BE07
:10599C0000231A4619464068FEF7F2BE00231A4649
:1059AC0019464068FEF7F4BE002281F00101406800
:1059BC00FEF7F6BE00224068FEF702BF0022114639
:1059CC004068FEF705BF002211464068FEF7F0BEA6
:1059DC002DE9F043002495B016460D460746FFF717
:1059EC002BFD214620220CA8009401F030F8402316
:1059FC000C9321466B460CAA3046FEF75DFD04461F
:105A0C00002844D1024601216868FEF7B1FE02214C
:105A1C00804622466868FEF7ABFE009E8146214612
:105A2C00002E34D0002932D17368022B02D00A2BFD
:105A3C0009D02AE0B8F1000F27D07169384604313B
:105A4C00FFF727FD20E0B9F1000F1ED07469112279
:105A5C0001A800F0FCFF06238DF8143001AD04F111
:105A6C0008031834186859682A4603C20833A3423D
:105A7C001546F7D101A906A807ADFFF7EBFC0FCD32
:105A8C003C1D0FC42B6823700121F669C8E70098F0
:105A9C00FEF70AFD384615B0BDE8F083024B034A09
:105AAC001A6000225A6070470CE70320CC6D0D0081
:105ABC0070B50C4C0C4E0D4D00212046FEF716FF18
:105ACC0020460B4C3246294600F034F80121204682
:105ADC00FEF70CFF324629462046BDE8704000F028
:105AEC0029B800BF14E70320B4E30320E9480D00F4
:105AFC0024E7032038B50B4D296811F001040FD1B0
:105B0C002846FEF7C8FA58B121460748FFF70EFEA3
:105B1C002846FEF7C5FA054A0549034800F00AF87D
:105B2C00014838BD38E703203CE70320B4E30320E9
:105B3C00E1560D000B460146184600F06FBFFEF70C
:105B4C00A6BA08B5FEF77CFE184B1A68D1075CBFE5
:105B5C0001221A60164B1A68D2075CBF01221A6028
:105B6C00144B1A68D0075CBF01221A60124B1A68DA
:105B7C00D1075CBF01221A60104B1A68D2075CBFB8
:105B8C0001221A600E4B1A68D0075CBF01221A6002
:105B9C000C4B1A68D1075CBF01221A600A4B1A68B9
:105BAC00D2075CBF01221A60704700BF6CE703206C
:105BBC0068E7032064E7032060E703205CE7032029
:105BCC0058E7032054E7032050E70320244B1A68BE
:105BDC00D0075CBF01221A60224B1A68D1075CBF48
:105BEC0001221A60204B1A68D2075CBF01221A608E
:105BFC001E4B1A68D0075CBF01221A601C4B1A6836
:105C0C00D1075CBF01221A601A4B1A68D2075CBF1D
:105C1C0001221A60184B1A68D0075CBF01221A6067
:105C2C00164B1A68D1075CBF01221A60144B1A6814
:105C3C00D2075CBF01221A60124B1A68D0075CBFF6
:105C4C0001221A60104B1A68D1075CBF01221A603E
:105C5C000E4B1A68D2075CBF01221A60704700BF56
:105C6C009CE7032098E7032094E7032090E70320A8
:105C7C008CE7032088E7032084E7032080E70320D8
:105C8C007CE7032078E7032074E7032070E7032008
:105C9C00244B1A68D0075CBF01221A60224B1A6889
:105CAC00D1075CBF01221A60204B1A68D2075CBF77
:105CBC0001221A601E4B1A68D0075CBF01221A60C1
:105CCC001C4B1A68D1075CBF01221A601A4B1A6868
:105CDC00D2075CBF01221A60184B1A68D0075CBF50
:105CEC0001221A60164B1A68D1075CBF01221A6098
:105CFC00144B1A68D2075CBF01221A60124B1A6847
:105D0C00D0075CBF01221A60104B1A68D1075CBF28
:105D1C0001221A600E4B1A68D2075CBF01221A606E
:105D2C00704700BFCCE70320C8E70320C4E703207B
:105D3C00C0E70320BCE70320B8E70320B4E7032047
:105D4C00B0E70320ACE70320A8E70320A4E7032077
:105D5C00A0E70320184B1A68D1075CBF01221A6018
:105D6C00164B1A68D2075CBF01221A60144B1A68D2
:105D7C00D0075CBF01221A60124B1A68D1075CBFB6
:105D8C0001221A60104B1A68D2075CBF01221A60FC
:105D9C000E4B1A68D0075CBF01221A600C4B1A68B4
:105DAC00D1075CBF01221A600A4B1A68D2075CBF8C
:105DBC0001221A60704700BFECE70320E8E70320DC
:105DCC00E4E70320E0E70320DCE70320D8E7032027
:105DDC00D4E70320D0E7032081F0004102E000BFAC
:105DEC0083F0004330B54FEA41044FEA430594EA8F
:105DFC00050F08BF90EA020F1FBF54EA000C55EACA
:105E0C00020C7FEA645C7FEA655C00F0E2804FEA9A
:105E1C005454D4EB5555B8BF6D420CDD2C4480EA7C
:105E2C00020281EA030382EA000083EA010180EAAC
:105E3C00020281EA0303362D88BF30BD11F0004FFA
:105E4C004FEA01314FF4801C4CEA113102D0404230
:105E5C0061EB410113F0004F4FEA03334CEA13336B
:105E6C0002D0524263EB430394EA050F00F0A78083
:105E7C00A4F10104D5F1200E0DDB02FA0EFC22FA7E
:105E8C0005F2801841F1000103FA0EF2801843FA72
:105E9C0005F359410EE0A5F120050EF1200E012A63
:105EAC0003FA0EFC28BF4CF0020C43FA05F3C018A1
:105EBC0051EBE37101F0004507D54FF0000EDCF11A
:105ECC00000C7EEB00006EEB0101B1F5801F1BD3C3
:105EDC00B1F5001F0CD349085FEA30004FEA3C0CC7
:105EEC0004F101044FEA445212F5800F80F09A80BD
:105EFC00BCF1004F08BF5FEA500C50F1000041EBC1
:105F0C00045141EA050130BD5FEA4C0C404141EBC4
:105F1C00010111F4801FA4F10104E9D191F0000FEB
:105F2C0004BF01460020B1FA81F308BF2033A3F16E
:105F3C000B03B3F120020CDA0C3208DD02F1140C65
:105F4C00C2F10C0201FA0CF021FA02F10CE002F1A0
:105F5C001402D8BFC2F1200C01FA02F120FA0CFC99
:105F6C00DCBF41EA0C019040E41AA2BF01EB0451E2
:105F7C00294330BD6FEA04041F3C1CDA0C340EDCE0
:105F8C0004F11404C4F1200220FA04F001FA02F323
:105F9C0040EA030021FA04F345EA030130BDC4F1E1
:105FAC000C04C4F1200220FA02F001FA04F340EAD6
:105FBC000300294630BD21FA04F0294630BD94F087
:105FCC00000F83F4801306BF81F480110134013D6E
:105FDC004EE77FEA645C18BF7FEA655C29D094EADF
:105FEC00050F08BF90EA020F05D054EA000C04BF5D
:105FFC001946104630BD91EA030F1EBF0021002048
:10600C0030BD5FEA545C05D14000494128BF41F0E6
:10601C00004130BD14F580043CBF01F5801130BD4A
:10602C0001F0004545F0FE4141F470014FF00000D5
:10603C0030BD7FEA645C1ABF194610467FEA655C86
:10604C001CBF0B46024650EA013406BF52EA033528
:10605C0091EA030F41F4002130BD00BF90F0000F16
:10606C0004BF0021704730B54FF4806404F1320452
:10607C004FF000054FF0000150E700BF90F0000F0B
:10608C0004BF0021704730B54FF4806404F1320432
:10609C0010F0004548BF40424FF000013EE700BF02
:1060AC0042004FEAE2014FEA31014FEA02701FBF92
:1060BC0012F07F4393F07F4F81F06051704792F064
:1060CC00000F14BF93F07F4F704730B54FF46074DE
:1060DC0001F0004521F0004120E700BF50EA010229
:1060EC0008BF704730B54FF000050AE050EA0102D6
:1060FC0008BF704730B511F0004502D5404261EB46
:10610C0041014FF4806404F132045FEA915C3FF486
:10611C00DCAE4FF003025FEADC0C18BF03325FEA1F
:10612C00DC0C18BF033202EBDC02C2F1200300FAD4
:10613C0003FC20FA02F001FA03FE40EA0E0021FAF9
:10614C0002F11444C1E600BF70B54FF0FF0C4CF4E3
:10615C00E06C1CEA11541DBF1CEA135594EA0C0F99
:10616C0095EA0C0F00F0DEF82C4481EA030621EAD4
:10617C004C5123EA4C5350EA013518BF52EA03350F
:10618C0041F4801143F4801338D0A0FB02CE4FF0C1
:10619C000005E1FB02E506F00042E0FB03E54FF0F1
:1061AC000006E1FB03569CF0000F18BF4EF0010EE9
:1061BC00A4F1FF04B6F5007F64F5407404D25FEAE5
:1061CC004E0E6D4146EB060642EAC62141EA555198
:1061DC004FEAC52040EA5E504FEACE2EB4F1FD0CDA
:1061EC0088BFBCF5E06F1ED8BEF1004F08BF5FEA58
:1061FC00500E50F1000041EB045170BD06F000460A
:10620C0046EA010140EA020081EA0301B4EB5C04B6
:10621C00C2BFD4EB0C0541EA045170BD41F48011AE
:10622C004FF0000E013C00F3AB8014F1360FDEBFD3
:10623C00002001F0004170BDC4F10004203C35DAAF
:10624C000C341BDC04F11404C4F1200500FA05F332
:10625C0020FA04F001FA05F240EA020001F00042D3
:10626C0021F0004110EBD37021FA04F642EB060149
:10627C005EEA430E08BF20EAD37070BDC4F10C0473
:10628C00C4F1200500FA04F320FA05F001FA04F237
:10629C0040EA020001F0004110EBD37041F1000123
:1062AC005EEA430E08BF20EAD37070BDC4F120052E
:1062BC0000FA05F24EEA020E20FA04F301FA05F296
:1062CC0043EA020321FA04F001F0004121FA04F23E
:1062DC0020EA020000EBD3705EEA430E08BF20EA0E
:1062EC00D37070BD94F0000F0FD101F00046400048
:1062FC0041EB010111F4801F08BF013CF7D041EACA
:10630C00060195F0000F18BF704703F000465200CD
:10631C0043EB030313F4801F08BF013DF7D043EA9E
:10632C000603704794EA0C0F0CEA135518BF95EA54
:10633C000C0F0CD050EA410618BF52EA4306D1D1DB
:10634C0081EA030101F000414FF0000070BD50EAFA
:10635C00410606BF1046194652EA430619D094EA84
:10636C000C0F02D150EA013613D195EA0C0F05D16E
:10637C0052EA03361CBF104619460AD181EA0301C2
:10638C0001F0004141F0FE4141F470014FF000007A
:10639C0070BD41F0FE4141F4780170BD70B54FF015
:1063AC00FF0C4CF4E06C1CEA11541DBF1CEA135595
:1063BC0094EA0C0F95EA0C0F00F0A7F8A4EB050477
:1063CC0081EA030E52EA03354FEA013100F088806E
:1063DC004FEA03334FF0805545EA131343EA126337
:1063EC004FEA022245EA111545EA10654FEA0026EC
:1063FC000EF000419D4208BF964244F1FD0404F5A5
:10640C00407402D25B084FEA3202B61A65EB030500
:10641C005B084FEA32024FF480104FF4002CB6EBBD
:10642C00020E75EB030E22BFB61A754640EA0C003D
:10643C005B084FEA3202B6EB020E75EB030E22BF7D
:10644C00B61A754640EA5C005B084FEA3202B6EBBE
:10645C00020E75EB030E22BFB61A754640EA9C007D
:10646C005B084FEA3202B6EB020E75EB030E22BF4D
:10647C00B61A754640EADC0055EA060E18D04FEA0B
:10648C00051545EA16754FEA06164FEAC30343EAAB
:10649C0052734FEAC2025FEA1C1CC0D111F4801F78
:1064AC000BD141EA00014FF000004FF0004CB6E771
:1064BC0011F4801F04BF01430020B4F1FD0C88BF10
:1064CC00BCF5E06F3FF6AFAEB5EB030C04BFB6EB1B
:1064DC00020C5FEA500C50F1000041EB045170BD0E
:1064EC000EF0004E4EEA113114EB5C04C2BFD4EB3B
:1064FC000C0541EA045170BD41F480114FF0000EBF
:10650C00013C90E645EA060E8DE60CEA135594EA3A
:10651C000C0F08BF95EA0C0F3FF43BAF94EA0C0F3D
:10652C000AD150EA01347FF434AF95EA0C0F7FF4B2
:10653C0025AF104619462CE795EA0C0F06D152EA06
:10654C0003353FF4FDAE1046194622E750EA4106EA
:10655C0018BF52EA43067FF4C5AE50EA41047FF4FB
:10656C000DAF52EA43057FF4EBAE12E74FF0FF3C60
:10657C0006E000BF4FF0010C02E000BF4FF0010C31
:10658C004DF804CD4FEA410C7FEA6C5C4FEA430CAA
:10659C0018BF7FEA6C5C1BD001B050EA410C0CBFF9
:1065AC0052EA430C91EA030F02BF90EA020F00205B
:1065BC00704710F1000F91EA030F58BF994208BFC2
:1065CC0090422CBFD8176FEAE37040F0010070477F
:1065DC004FEA410C7FEA6C5C02D150EA013C07D1D6
:1065EC004FEA430C7FEA6C5CD6D152EA033CD3D021
:1065FC005DF8040B704700BF8446104662468C461B
:10660C001946634600E000BF01B5FFF7B7FF00284D
:10661C0048BF10F1000F01BD4DF808EDFFF7F4FF76
:10662C000CBF012000205DF808FB00BF4DF808ED01
:10663C00FFF7EAFF34BF012000205DF808FB00BF24
:10664C004DF808EDFFF7E0FF94BF012000205DF846
:10665C0008FB00BF4DF808EDFFF7CEFF94BF0120FB
:10666C0000205DF808FB00BF4DF808EDFFF7C4FFF4
:10667C0034BF012000205DF808FB00BF4A0011D296
:10668C0012F5001211D20DD56FF47873B3EB625280
:10669C000ED44FEAC12343F0004343EA505323FA8C
:1066AC0002F070474FF00000704750EA013002D101
:1066BC004FF0FF3070474FF00000704753B94AB9A4
:1066CC00002908BF00281CBF4FF0FF314FF0FF30EE
:1066DC0000F0A2B9ADF1080C6DE904CE00F02AF877
:1066EC00DDF804E0DDE9022304B07047D0B50022E8
:1066FC000E4B06460F46FFF727FDFFF7BFFF04467C
:10670C00FFF7ACFC00220A4BFFF71EFD02460B46BE
:10671C0030463946FFF764FBFFF7B0FF23460022F3
:10672C0042EA000210461946D0BD00BF0000F03D01
:10673C000000F0412DE9F0478C460E460446089DBA
:10674C00002B50D18A4217466CD9B2FA82FEBEF1A8
:10675C00000F0BD0CEF1200420FA04F401FA0EF64F
:10676C0044EA060C02FA0EF700FA0EF44FEA174947
:10677C00220CBCFBF9F01FFA87F809FB10C642EAA1
:10678C00064600FB08F3B34209D9F61900F1FF32B3
:10679C0080F02281B34240F21F8102383E44F61A47
:1067AC00A2B2B6FBF9F309FB136642EA064403FBFB
:1067BC0008F8A04509D9E41903F1FF3280F00A81E9
:1067CC00A04540F20781023B3C44C8EB040443EA79
:1067DC0000400021002D62D024FA0EF400232C601E
:1067EC006B60BDE8F0878B4207D9002D55D0002196
:1067FC0085E841000846BDE8F087B3FA83F100292B
:10680C0040F09080B34202D3824200F2F880841AA6
:10681C0066EB03060120B446002D40D085E810102D
:10682C00BDE8F08712B90127B7FBF2F7B7FA87FE7C
:10683C00BEF1000F35D1F31B4FEA17481FFA87FC46
:10684C000121B3FBF8F0220C08FB103642EA064695
:10685C000CFB00F3B34207D9F61900F1FF3202D258
:10686C00B34200F2CE801046F61AA2B2B6FBF8F391
:10687C0008FB136642EA06440CFB03FCA44507D94B
:10688C00E41903F1FF3202D2A44500F2B58013469D
:10689C00CCEB040443EA00409CE729462846BDE8BB
:1068AC00F087CEF1200106FA0EF307FA0EF720FA64
:1068BC0001F94FEA1748CE4049EA0309B6FBF8FA4A
:1068CC004FEA194408FB1A661FFA87FC44EA064390
:1068DC000AFB0CF29A4200FA0EF40AD9DB190AF1FF
:1068EC00FF3180F087809A4240F28480AAF1020A3C
:1068FC003B449B1A1FFA89F9B3FBF8F108FB1133DF
:10690C0049EA034301FB0CF69E4207D9DB1901F15E
:10691C00FF326BD29E4269D902393B449B1B41EA40
:10692C000A418EE7C1F1200E22FA0EF48B4023436C
:10693C0020FA0EF706FA01F44FEA134C26FA0EF67B
:10694C003C43B6FBFCF9270C0CFB19661FFA83F8C9
:10695C0047EA064609FB08F7B74202FA01F200FAC9
:10696C0001FA08D9F61809F1FF3041D2B7423FD9E4
:10697C00A9F102091E44F61BA0B2B6FBFCF40CFBF9
:10698C00146640EA064704FB08F8B84507D9FF1817
:10699C0004F1FF3028D2B84526D9023C1F4444EA02
:1069AC000940C8EB0707A0FB02894F4544464E46F9
:1069BC0014D329D065B3BAEB040367EB060707FAC7
:1069CC000EFECB40CF404EEA030385E88800002141
:1069DC00BDE8F0871346F8E61046E0E6B8EB020493
:1069EC0069EB03060138E5E70446D8E7114695E75D
:1069FC008146C0E78A467CE7023B3C4448E70846B0
:106A0C000AE702383E442FE7C245E7D33E46D1E7BA
:106A1C002946BDE8F08700BF704700BF10B5054C94
:106A2C0013462CB10A4601460220AFF3008010BD7C
:106A3C00204610BD0000000010B5431E0A449142D0
:106A4C0004D011F8014B03F8014FF8E710BD0244D4
:106A5C000346934202D003F8011BFAE7704700008B
:106A6C0038B5124B1C68A36B0546D3B91820FDF73B
:106A7C00CFFE43F20E33A06303804AF6CD3343803E
:106A8C0041F2342383804EF26D63C3804DF6EC6388
:106A9C000381052343810B23838101220023C0E959
:106AAC000423A36B00221D615A6138BDB0E303209F
:106ABC00034611F8012B03F8012B002AF9D170477A
:106ACC00024B0146186800F003B800BFB0E3032086
:106ADC0070B5064608460C4600F00DF8451C2946D4
:106AEC003046FDF7B5FE064618B12A462146FFF79B
:106AFC00A3FF304670BD034613F8012B002AFBD1CF
:106B0C00181A0138704700001D400D0059400D0047
:106B1C0085400D0089400D00000000007B202255AF
:106B2C0056566973223A202200222C0022555649CF
:106B3C0052223A202200225556496478223A2022C9
:106B4C0000227D00555600000000000000000000EF
:106B5C00CB480D00C1480D00B7480D00AD480D00E5
:106B6C00A1480D0095480D0089480D0081480D0085
:106B7C0077480D006D480D00DD590D000000000038
:106B8C0000000000E9480D00EB480D0062617564DF
:106B9C000053657269616C0053657269616C3100F8
:106BAC007479706500706172616D00636D64006969
:106BBC006400686E64007374726D0066696C7400B6
:106BCC006C766C0061646448616E646C6572007212
:106BDC00656D6F766548616E646C657200656E7587
:106BEC006D48616E646C657273004A534F4E5374FA
:106BFC007265616D4C6F6748616E646C65720061A3
:106C0C00707000253031307520005D200025640047
:106C1C002C200028293A2000205B00636F6465203B
:106C2C003D200025690064657461696C73203D200A
:106C3C00000D0A0066006C6E00666E00636F646582
:106C4C000064657461696C006E6F6E6500747261CE
:106C5C00636500696E666F007761726E00657272B3
:106C6C006F720070616E696300616C6C005A002574
:106C7C002B3033643A253032750025592D256D2D76
:106C8C0025645425483A254D3A2553257A006173DD
:106C9C006374696D650000000000000000000000D6
:106CAC00494E0D004F4E0D00934E0D005D4E0D00E4
:106CBC004B4E0D000000000000000000E1530D00E1
:106CCC00D1530D00D3530D00000000000000000054
:106CDC00B9540D0009550D0017550D00414C0D0010
:106CEC00F5540D00BB540D00D1540D0003550D008F
:106CFC00E7540D00B5540D0000000000000000002A
:106D0C00BD550D000D560D001B560D00414C0D00D0
:106D1C00D1550D00F3550D00DF550D0007560D0034
:106D2C00BF550D00C3550D00000000000000000011
:106D3C00E1560D002B570D0003570D00E3560D00C7
:106D4C000B570D0013570D001B570D0023570D004B
:106D5C000000000000000000F5570D00EB570D007F
:106D6C00E1570D00D7570D00CB570D00BF570D0045
:106D7C00B3570D00AB570D00A1570D0097570D00E1
:106D8C00DD590D00000000000000000057590D00F7
:106D9C004D590D0043590D00F9580D0037590D0090
:106DAC002B590D001F590D0017590D000D590D00D1
:106DBC0003590D00DD590D0000000000000000001B
:106DCC0075590D007F590D0089590D0093590D000F
:106DDC009D590D00A9590D00B5590D00C1590D0053
:106DEC00C9590D00D3590D00DD590D0000000000EC
:106DFC000000000000000000000000000000000087
:106E0C000000000000000000000000000000000076
:106E1C000000000000000000000000000000000066
:106E2C000000000000000000000000000000000056
:106E3C000000000000000000000000000000000046
:106E4C0000000000000000000000000043000000F3
:106E5C0025420D00B1440D00D5480D0021490D000F
:106E6C00314C0D00F14C0D00014D0D00594D0D0034
:106E7C00A9580D0061590D00A95A0D00BD5A0D00FD
:106E8C00555B0D00D95B0D009D5C0D00615D0D0027
:046E9C0000000000F2
:086EA000A0F8FF7F01000000D3
:106EA8009A6C0D0000000000F86D0D00186E0D00C2
:106EB800386E0D0000000000000000000000000017
:106EC80000000000586E0D000000000000000000E7
:106ED80000000000000000000000000000000000AA
:106EE800000000000000000000000000000000009A
:106EF800000000000000000000000000000000008A
:086F08000000000050E303202B
:106F1000FFFFFFFF00000102030405060708090A3E
:106F20000B0C0D0E0F101112131415161718191A39
:086F30001B1C1D1E1F20280080
:046F38007856341241
:04000003D000401CCD
:00000001FF
