:02000004080AE8
:1000000000000A085C310A0800000600060005012D
:0800100004027E05000000005F
:04001800A42D0A0801
:10001C0009480A4908B5884205D0094A824202D0EB
:10002C00121A02F059FE0748074A0021121A02F070
:10003C005EFE064808BD00BF00000020CC300A0858
:10004C006800002068000020040600200406002040
:10005C0070B500F033FE074B074C1E46E41AA4089B
:10006C000025A54204D056F8253098470135F8E70D
:10007C0070BD00BF84300A08BC300A0800F014B808
:10008C0008B500F0BFF8BDE8084000F0D9BD00F09D
:10009C008FBB00F095BB0078B0FA80F04009704738
:1000AC00012303707047000008B50A4800F077F987
:1000BC0048B901F0C3F9084900F00AFD4FF47A7011
:1000CC0000F05CFDF1E701F0B9F9BDE80840034927
:1000DC0000F0FEBC71000020B82D0A08CB2D0A08D8
:1000EC0010B50D4C204600F0F1F802F08BFA0B4BDA
:1000FC001860204600F0EDF802F084FA084B186006
:10010C00204600F0E0F802F07DFA064902F086FB8A
:10011C00054B186010BD00BF710000206C00002062
:10012C00780000200000C8427400002038B5046834
:10013C0005467CB16368013B63605BB9236820466C
:10014C009B689847A368013BA3601BB923682046B2
:10015C00DB689847284638BD10B5234B88B0234C34
:10016C001968062204A800F067FC2378049A204939
:10017C008DF8003002A83C2300F00EFF03A8FFF717
:10018C00D5FF04A800F000FC1A4B0622196804A83D
:10019C0000F052FC2378049A17498DF8003002A81D
:1001AC003C2300F0F9FE03A8FFF7C0FF04A800F001
:1001BC00EBFB124B0622196804A800F03DFC2378D7
:1001CC00049A0F498DF8003002A83C2300F0E4FE9D
:1001DC0003A8FFF7ABFF04A800F0D6FB42F21070A7
:1001EC0000F0CCFC08B010BD6C00002070000020AA
:1001FC00CF2D0A0878000020D52D0A0874000020A5
:10020C00DA2D0A0808B5FFF76BFFBDE80840FFF7C9
:10021C00A3BF000008B5054B01221A7000F042F98B
:10022C00BDE80840024800F005B800BF700000208F
:10023C007100002060230370704738B504460D46EA
:10024C0001F046FB217801F03DFA01F041FB036817
:10025C0029469B68984701F03BFB01F03BFA01F003
:10026C0037FB0122217801F02AFA01F031FB0368F7
:10027C005B699847C0B238BD38B504460D4601F0ED
:10028C0027FB217801F01EFA01F022FB03682946B6
:10029C009B68984701F01CFB01F01CFA01F018FB5D
:1002AC002178022201F00BFA01F012FB03685B6962
:1002BC009847044601F00CFB03685B69984744EAD5
:1002CC00002080B238BD2C21FFF7D6BF2221FFF7CA
:1002DC00D3BF2421FFF7D0BF70B5064614460D4698
:1002EC0001F0F6FA317801F0EDF901F0F1FA03685A
:1002FC0029469B68984701F0EBFA036821469B68F6
:10030C00984701F0E5FABDE8704001F0E3B910B58B
:10031C00044600220821FFF7DFFF204600220921B6
:10032C00FFF7DAFF204600220421FFF7D5FF204615
:10033C0000220521FFF7D0FF204600220621FFF7FF
:10034C00CBFF204600220321FFF7C6FF2046FF22E9
:10035C002121FFF7C1FF012218212046FFF7BCFF26
:10036C000A2000F00BFC204617220721FFF7B4FFF0
:10037C00BDE810400A2000F001BC38B504460D461B
:10038C001721FFF7A9FF204645F0A0021821FFF71F
:10039C00A3FF2046BDE838402E21FFF74EBF10B515
:1003AC00044601F095FA01F07BF900212046FFF795
:1003BC0044FF452872D12046FFF7A9FF2046292289
:1003CC001321FFF789FF204689221421FFF784FFB0
:1003DC00204602221521FFF77FFF2046002216211E
:1003EC00FFF77AFFB12201212046FFF7C6FF204616
:1003FC0001220321FFF770FF204601220421FFF7A1
:10040C006BFF204603220F21FFF766FF0322072113
:10041C002046FFF7B2FF012202212046FFF7ADFF75
:10042C0000220B212046FFF7A8FF70220A2120464C
:10043C00FFF7A3FF24220C212046FFF79EFF00228A
:10044C000E212046FFF799FF00221E212046FFF7C0
:10045C0094FF70221D212046FFF78FFF20221F21C1
:10046C002046FFF78AFF002211212046FFF785FF67
:10047C00702210212046FFF780FF202212212046F7
:10048C00FFF77BFF2046FF220821FFF725FF2046C0
:10049C000F221821FFF720FF012010BD002010BDF6
:1004AC0000F000B808B5024B1B681B68019308BD2F
:1004BC00B001060808B5024B1B68DB69019308BD47
:1004CC00B401060808B5024B1B685B68019308BDB4
:1004DC009C01060808B5024B1B685B69019308BDBB
:1004EC009C01060808B5024B1B681B6B019308BDE9
:1004FC00D001060808B5024B1B689B69019308BD27
:10050C00C401060808B5024B1B685B6A019308BD61
:10051C00C401060808B5024B1B689B6A019308BD11
:10052C00C401060808B5024B1B68DB6A019308BDC1
:10053C00C401060808B5024B1B681B6B019308BD70
:10054C00C401060808B5024B1B685B6B019308BD20
:10055C00C401060808B5024B1B681B6C019308BD4F
:10056C00C401060808B5024B1B68DB6C019308BD7F
:10057C00AC01060808B5024B1B685B6D019308BD06
:10058C00AC01060808B5024B1B689B6D019308BDB6
:10059C00AC01060808B5024B1B68DB6D019308BD66
:1005AC00AC01060808B5024B1B681B6E019308BD15
:1005BC00AC01060808B5024B1B685B6E019308BDC5
:1005CC00AC01060808B5024B1B689B6E019308BD75
:1005DC00AC01060808B5024B1B68DB6E019308BD25
:1005EC00AC01060808B5024B1B681B6F019308BDD4
:1005FC00AC01060808B5034B1B68D3F88030019397
:10060C0008BD0000AC01060808B5024B1B681B684E
:10061C00019308BDD801060808B5024B1B681B697D
:10062C00019308BDD801060808B5024B1B685B692D
:10063C00019308BDD801060808B5024B1B689B69DD
:10064C00019308BDD801060808B5024B1B68DB698D
:10065C00019308BDD801060808B5024B1B681B6A3C
:10066C00019308BDD801060808B5024B1B689B6CAA
:10067C00019308BDC001060808B5024B1B685B68F6
:10068C00019308BDA401060808B5024B1B685B6901
:10069C00019308BDA401060808B5024B1B68DB6C6E
:1006AC00019308BDA401060808B5024B1B685B6DDD
:1006BC00019308BDA401060808B5034B1B68D3F8C9
:1006CC009030019308BD0000A401060808B5034B47
:1006DC001B68D3F89C30019308BD0000A4010608E8
:1006EC0008B5024B1B685B68019308BDC80106087E
:1006FC0008B5024B1B689B68019308BDC80106082E
:10070C0008B5024B1B68DB68019308BDC8010608DD
:10071C0008B5024B1B681B69019308BDC80106088C
:10072C0008B5024B1B685B69019308BDC80106083C
:10073C0008B5024B1B689B69019308BDC8010608EC
:10074C0008B5024B1B68DB69019308BDC80106089C
:10075C0008B5024B1B681B6A019308BDC80106084B
:10076C0008B5024B1B681B6B019308BDC80106083A
:10077C0008B5024B1B685B6B019308BDC8010608EA
:10078C0008B5024B1B685B69019308BDCC010608D8
:10079C0008B5024B1B681B6A019308BDCC01060807
:1007AC0008B5024B1B68DB6B019308BDCC01060836
:1007BC0008B5024B1B681B68019308BDA001060815
:1007CC0008B5024B1B685B68019308BDA0010608C5
:1007DC0008B5024B1B689B68019308BDA001060875
:1007EC0008B5024B1B68DB6A019308BDA001060823
:1007FC0008B5024B1B681B6B019308BDA0010608D2
:10080C00704710B50446102101F087F8204610BD42
:10081C0070B504460E46074B0025036040F80C5F8C
:10082C00FFF760FE30462671FFF744FEA5602046B8
:10083C0070BD00BFE82D0A084FF6FF72034B002075
:10084C00187058809A80FFF717BF00BF7C000020FB
:10085C0010B5044602F097FA013823182046984246
:10086C0006D20278197800F8011B03F80129F6E783
:10087C0010BD70B50C46911E222920D8254629465C
:10088C0010B9234430220EE0B0FBF2F602FB160046
:10089C00C1B2092805F8011B94BF3031573105F856
:1008AC00011C3046EBE7994202D201F8012BFAE722
:1008BC00002320460B70FFF7CBFF204670BD0020B5
:1008CC0070BD00002DE9F14F80460D4617461E46BF
:1008DC00002200234046294601F096FD20B12D232D
:1008EC00337005F100450136002301240A22D9B2E8
:1008FC008F4202D954430133F9E7204601F0ACFA98
:10090C0042462B4601F00EFB82468B4602F03AF82B
:10091C008046894601F0D0FA02460B4650465946AD
:10092C0001F04CF90022174B01F082FD18B118F1BF
:10093C00010849F10009E51722462B464046494675
:10094C0002F008F801230A223146FFF792FFAFB1FB
:10095C00304602F018FA2E23335401300644224656
:10096C002B464046494601F0F5FF3B4610463146C2
:10097C000A2201B0BDE8F04FFFF77BBF01B0BDE824
:10098C00F08F00BF0000E03F10B504460068FFF791
:10099C0017FF204610BD10B50446006808B1FFF7DC
:1009AC000FFF00232360A360636010BD38B50446BD
:1009BC000D4600680131FFF70BFF10B184E82100F0
:1009CC00012038BD10B50368044613B143688B424F
:1009DC0007D22046FFF7EAFF20B1A3680BB92268C3
:1009EC001370012010BD70B50E4611460446154615
:1009FC00FFF7E8FF18B92046FFF7CDFF09E02A46BC
:100A0C003146A560206802F067F92268A3680021CE
:100A1C00D154204670BD38B505460C4641B1084648
:100A2C0002F0B1F9214602462846FFF7DCFF01E04F
:100A3C00FFF7B1FF284638BD30B5044600238BB014
:100A4C000360436083600373D5B2084601F016FA65
:100A5C0001AB2A46FFF736FF01A92046FFF7DBFF63
:100A6C0020460BB030BDF8B506460D468F18002455
:100A7C00BD420CD0336815F8011B9B683046984773
:100A8C00002801DB0444F3E7002C08BF0446204691
:100A9C00F8BD70B505460C46084649B102F073F92D
:100AAC002B68024621462846BDE87040DB68184793
:100ABC0070BD03689B68184738B50D210546FFF7D4
:100ACC00F8FF0A2104462846FFF7F3FF204438BDFF
:100ADC0038B50546FFF7DDFF04462846FFF7ECFF67
:100AEC00204438BD012A98BF0A2230B50B468BB082
:100AFC0000218DF824100DF12304B3FBF2F505FB56
:100B0C001233DBB2092B94BF30333733DBB22146BF
:100B1C0004F801392B46002DEFD1FFF7BAFF0BB0CB
:100B2C0030BD10B422B90368C9B29B6810BC184719
:100B3C00D2B210BCFFF7D6BFFFF7F3BF00231A46A3
:100B4C0019464068FFF7ECBD0B68036013B15A6897
:100B5C0001325A6070470000014A024B1A6070471C
:100B6C00662E0A0884000020024B1A68024B1A6099
:100B7C00704700BF00000020880000200021FFF714
:100B8C0083BD10B58368044613B103220146984710
:100B9C00204610BD10B50446FFF7F3FF204610BDEC
:100BAC0013B50B46044603C88DE8030093E8030015
:100BBC0084E803009DE8030083E8030002B010BD45
:100BCC00034800238360034A034900F0A1BE00BF21
:100BDC008C00002068000020A10B0A0808B5144BFB
:100BEC0033B100F02BFC03681B699847002816DC16
:100BFC00104B33B100F0DCFC03681B6998470028EC
:100C0C0010DC0D4B0BB1AFF300800C4B7BB100F043
:100C1C0051FC03681B699847002806DC08BDAFF33C
:100C2C000080E5E7AFF30080EBE7AFF3008008BD91
:100C3C0000000000000000000000000000000000A8
:100C4C0008B5FFF7CBFFFFF745FC014B186008BD5B
:100C5C00300500200248034A0349121A02F03CB83E
:100C6C000040024004400240C8300A0807B5002387
:100C7C0000931A466FF07701FFF728FD03B05DF87B
:100C8C0004FB000007B543880A2B08D0502B09D170
:100C9C00094B1B683BB103B05DF804EB1847FFF739
:100CAC00E5FF06E0002300931A466FF07701FFF78B
:100CBC000DFD03B05DF804FB9C00002038B5104C12
:100CCC00104D2368AB42104B0CBF012200221A704E
:100CDC0002D0FFF7BFFF2560FFF7F4FB044602F0DC
:100CEC000FF80A4B13B12046AFF3008000210748E0
:100CFC00FFF756FDBDE8384000210548FFF7DCBC86
:100D0C00004002401E1C279AA0000020000000009A
:100D1C00910C0A0870470020704710B5044610214A
:100D2C0000F0FBFD204610BD08B508B1FFF7F5FF3C
:100D3C0008BD002202604FF69C72828010B5B1F99A
:100D4C00044084808A8002680C6804600A6010BDCC
:100D5C0010B504460068FFF733FD204610BD38B5CA
:100D6C00C468F4B12378022B03D104F10C00FFF713
:100D7C00EFFF656835B12846FFF703FF10212846C1
:100D8C0000F0CBFDA56835B12846FFF7FAFE10211F
:100D9C00284600F0C2FD2046BDE83840142100F082
:100DAC00BCBD38BD13B5044691E8050000234B606B
:100DBC000B602060626001A801930093FFF7B6F905
:100DCC00204602B010BDF7B50C4606460F4654F847
:100DDC00043B02AD45F8083D214601A8FFF7B4FEDF
:100DEC0029463046FFF7DEFF01A8FFF79FF92046A2
:100DFC00FFF79CF93846082100F08FFD304603B010
:100E0C00F0BD000038B500230446036010200D46E9
:100E1C00FFF73DF928B1012343608360024BC560A5
:100E2C0003602060204638BD082F0A08826810B580
:100E3C000AB900F074FDC368BDE81040184708B546
:100E4C00006800F11001FFF7F1FF08BD826810B5D2
:100E5C000AB900F064FDC368BDE81040184708B536
:100E6C00006800F11001FFF7F1FF08BD38B5002351
:100E7C0083608B6804460D462BB102229847EB68C1
:100E8C00E360AB68A360204638BD0000F0B589B0C4
:100E9C0004686846FFF74DFF4FF0020200238DF8FF
:100EAC000830D4E84F3F002B03D1C4E8412F002970
:100EBC00F7D102D08DF8083063E014F10C0503D0A3
:100ECC0069462846FFF735FFBFF35F8F0123637038
:100EDC00BFF35F8F04F10803002053E8006F43E871
:100EEC000002002AF9D1BFF35F8F002E49D0FFF723
:100EFC00D3FB20B129463046FFF798FF3AE0314644
:100F0C0002A8FFF7B3FFE068B4F9105008B101F084
:100F1C001FFF06901020ADF81C50FFF7B8F80546DF
:100F2C00E8B1002787601820FFF7B1F8044688B1B4
:100F3C000146876002A8FFF733FE049BA268A360FA
:100F4C00059B0492E26806A9E36004F11000059287
:100F5C00FFF7EFFE0D4B2C60EB600D4BAB6006A862
:100F6C00FFF7F6FE02A8FFF70CFE002229460948FF
:100F7C00FFF79AFB3046FFF704FE1021304600F0D5
:100F8C00CCFC6846FFF7E4FE09B0F0BD4B0E0A0836
:100F9C00C1100A0809160A082DE9F04F8BB0064655
:100FAC000F46904699469DF850A0FFF7E9FB07AD18
:100FBC00834630BB4FF62E73059005A92846ADF835
:100FCC001830FFF7B6FE1420FFF761F8044658B14D
:100FDC000223037001234370C0F804B0C0F808B0BA
:100FEC0029460C30FFF7A5FE3046214640F8044B4D
:100FFC00FFF708FF2846FFF7ABFE05A8FFF7A8FE92
:10100C0052E000240C2314206C60AC600793FFF7B3
:10101C003EF8014618B1047044704460846004A822
:10102C000391FFF7EFFE224B08200893FFF72FF8F0
:10103C00044628B1039B04A940F8043BFFF784FD48
:10104C0000955FFA8AF34A46414638460994FFF701
:10105C009FFB20B9039B5B7803F0FF0283B1039BDA
:10106C0004A906A80593FFF76FFD05A93046FFF705
:10107C0099FE06A8FFF75AF804A8FFF757F813E0F3
:10108C004FF69C7305A903A80592ADF81830FFF72D
:10109C00FDFE05A8FFF75CFE05A80999FFF793FE76
:1010AC0006A8FFF743F8DAE730460BB0BDE8F08F3F
:1010BC0031120A08022AF8B5044606D0032A17D0C2
:1010CC00012A22D10B6803601FE018200E68FEF77E
:1010DC00DEFF054650B13146FFF7C8FE3069B6F960
:1010EC00147008B101F034FE2861AF8225600CE069
:1010FC00046854B104F11000FFF72AFE2046FFF7F4
:10110C0040FD1821204600F008FC0020F8BD38B541
:10111C00002383608B6804460D462BB1022298474E
:10112C00EB68E360AB68A360204638BD022A70B55B
:10113C00044606D0032A11D0012A18D10B6803608B
:10114C0015E014200E68FEF7A2FF054620B13146CB
:10115C00FFF7DDFF337C2B74256008E0046834B1A5
:10116C002046FFF70EFD1421204600F0D6FB002090
:10117C0070BD0000F0B50C46BFF35F8F87B0002345
:10118C0050E8006F40E80032002AF9D1BFF35F8FBE
:10119C00002E3FD01846FFF77FFA074620B12146B4
:1011AC003046FFF753FE2EE0314601A8FFF7AFFFA4
:1011BC00237810208DF81430FEF769FF0546D0B166
:1011CC0087601420FEF763FF044678B18760014600
:1011DC0001A8FFF7E5FC039BA268A360049B0392A4
:1011EC00E268E3609DF81430049223740A4B2C607F
:1011FC00EB600A4BAB6001A8FFF7C3FC0022294649
:10120C000748FFF751FA3046FFF7BBFC1021304678
:10121C0000F083FB07B0F0BD6B0E0A0839110A0809
:10122C0009160A0830B5044685B00D4668461146C5
:10123C00FFF7C9FD7CB124B228460DB101F088FD41
:10124C00029002A96846ADF80C40FFF71FFE02A8F9
:10125C00FFF77EFD1DE04FF0010200988DF808406D
:10126C00D0E84F3FA34203D1C0E8412F0029F7D16A
:10127C0002D08DF808300CE010F10C014FF0010396
:10128C0018BF0373BFF35F8F043000F8033CFFF704
:10129C0071FF01A8FEF74AFF05B030BD704710B5CD
:1012AC000446182100F039FB204610BDF8B50F4656
:1012BC0000F10806051D002416F8011D0A22384607
:1012CC00FFF73AFCAE42044407D0002CF4D02E2198
:1012DC003846FFF7EEFB0444EEE72046F8BD00006D
:1012EC0010B50446044B112240F8043B002101F0D8
:1012FC00FEFC204610BD00BF242F0A080346074AF7
:10130C0010B543F8042B01F1100251F8044B914233
:10131C0043F8044BF9D10A781A7010BD242F0A082F
:10132C00024A41600260042202757047242F0A08A9
:10133C0010B59DF8084044EA032343EA024242EA0E
:10134C00016104234160037510BD000037B5044DE5
:10135C0005609DF818500095FFF7EAFF03B030BD0B
:10136C00242F0A0841747047704708B50021007C8F
:10137C00FFF762F930EA200028BF4FF0FF3008BDBC
:10138C0008B50121007CFFF757F930EA200028BF8F
:10139C004FF0FF3008BD08B5007CFFF745F920EA97
:1013AC00E07008BD08B5007CFFF736F920EAE07064
:1013BC0008BD007CFFF750B910B50446142100F0AD
:1013CC00ACFA204610BD38B50446007C0D46FFF73C
:1013DC002BF9002801DC607C28B12946207CFFF722
:1013EC0033F920EAE07038BD10B504460023636081
:1013FC004FF47A73A360054B0846236001232174D4
:10140C0063741146FFF700F9204610BD382F0A0807
:10141C0010B504461422002101F069FC054B20464E
:10142C006360054BE36040F2011323818123238227
:10143C0010BD00BF29010020A800002030B50E4DC2
:10144C0087B001A8FFF7E4FF296811F0010410D15F
:10145C002846FEF720FE60B101AA21460748FFF797
:10146C00C3FF2846FEF71CFE054A0649034800F058
:10147C004FFA024807B030BDA40000202C02002017
:10148C006800002075130A0810B5044614220021C8
:10149C0001F02DFC054B20466360054BE36040F2E8
:1014AC00011323818123238210BD00BFDC020020A5
:1014BC004402002010B50E4C86B001A8FFF7E4FFE3
:1014CC002368DB0710D42046FEF7E5FD60B101AAC6
:1014DC0001210848FFF788FF2046FEF7E1FD064A88
:1014EC000649044800F014FA024806B010BD00BFCB
:1014FC0040020020C80200206800002075130A0872
:10150C0070474174704708B5007CFFF723F820EA58
:10151C00E07008BD08B5007CFEF7FCFF20EAE07027
:10152C0008BD08B5007CFFF705F830EA200028BF9D
:10153C004FF0FF3008BD08B5007CFEF7F3FF30EA32
:10154C00200028BF4FF0FF3008BD007CFEF7FABF2B
:10155C0010B50446142100F0E0F9204610BD70B51A
:10156C00457C04460E4625B9007CFEF7F3FF0028A7
:10157C0005DD3146207CBDE87040FEF7C3BF284630
:10158C0070BD000010B5044608461146002262608A
:10159C004FF47A72A260054A2074226001226274B0
:1015AC001A46FEF7A7FF204610BD00BF682F0A0899
:1015BC0038B50C4D296811F0010411D12846FEF7FD
:1015CC006AFD68B1084A2146084B0948FFF7DAFF63
:1015DC002846FEF765FD074A0749054800F098F9CB
:1015EC00034838BD780400207C040020F40300205C
:1015FC00E0030020680000200D150A0810B5836870
:10160C0004460BB900F08BF9C3689847A3681BB16B
:10161C0003222146204698472046BDE81040102161
:10162C0000F07BB97047F8B5064615460C468F1886
:10163C00BC4206D0336814F8011B9B6830469847AF
:10164C00F6E72846F8BD0022007CFEF7ABBF002170
:10165C00007CFEF7AFBF0021007CFEF7B3BF00217A
:10166C00007CFEF7B7BF0021007CFEF7BBBF10B5B6
:10167C000446142100F051F9204610BD10B5044663
:10168C0008464FF47A73A360044B00212074616008
:10169C002360FEF7AFFF204610BD00BF982F0A084D
:1016AC0000231A461946007CFEF75CBF13B50024D4
:1016BC00007C0094FEF75EFFC0B202B010BD0123A7
:1016CC00FFF7F4BF0022007CFEF75CBF0022007C19
:1016DC00FEF760BF0121FFF7F9BF002211464068F9
:1016EC00FFF716B8F0B5164689B011220F4604461E
:1016FC00002103A801F0FBFA304601F044FB002561
:10170C00009581B27B6803AA3046FEF7ADFF20B18D
:10171C0029462046FFF704FE03E003A92046FFF705
:10172C00EDFD204609B0F0BD002211464068FFF7E0
:10173C000FB8002211464068FFF71AB80022406823
:10174C00FFF70EB8002281F001014068FEF7F8BFE8
:10175C0000231A4619464068FEF7EABF00221146DC
:10176C004068FEF7C5BF002202214068FEF7C8BFE3
:10177C0000231A464068FEF7B3BF0000024B042258
:10178C005A60024A1A60704700050020C02F0A08F0
:10179C0000231A464068FEF7A3BF002202214068CE
:1017AC00FEF7AEBF002211464068FEF7A1BF002233
:1017BC0011464068FEF7ACBF00231A461946406834
:1017CC00FEF7AEBF00231A4619464068FEF7B0BFBD
:1017DC00002281F001014068FEF7B2BF0022406890
:1017EC00FEF7BEBF002211464068FEF7C1BF0022C3
:1017FC0011464068FEF7ACBF70B516468EB0044675
:10180C0008A8FFF76DFD1122002103A801F06FFA63
:10181C00304601F0B8FA00250A4B009581B25B689E
:10182C0003AA3046FEF720FF20B129462046FFF7D9
:10183C0077FD03E003A92046FFF760FD20460EB0BC
:10184C0070BD00BF00050020024B034A1A60002245
:10185C005A60704708050020F42F0A0870B50C4C2C
:10186C000C4E0D4D00212046FEF7D2FF20460B4CAE
:10187C003246294600F04CF801212046FEF7C8FFFD
:10188C00324629462046BDE8704000F041B800BF02
:10189C0010050020680000200D080A082005002013
:1018AC0013B5084C00231A46194600932046FFF73F
:1018BC004DFD2046044A054902B0BDE8104000F039
:1018CC0027B800BF3405002068000020A9120A08C0
:1018DC0038B50B4D296811F001040FD12846FEF7DD
:1018EC00DAFB58B121460748FFF7C8FE2846FEF739
:1018FC00D7FB054A0549034800F00AF8014838BDF2
:10190C004C050020500500206800002031160A0804
:10191C000B460146184601F0D1B9FEF7BABB08B523
:10192C00FEF75EFF184B1A68D1075CBF01221A60E4
:10193C00164B1A68D2075CBF01221A60144B1A6846
:10194C00D0075CBF01221A60124B1A68D1075CBF2A
:10195C0001221A60104B1A68D2075CBF01221A6070
:10196C000E4B1A68D0075CBF01221A600C4B1A6828
:10197C00D1075CBF01221A600A4B1A68D2075CBF00
:10198C0001221A60704700BF800500207C050020F2
:10199C007805002074050020700500206C050020DF
:1019AC006805002064050020244B1A68D0075CBF32
:1019BC0001221A60224B1A68D1075CBF01221A60FF
:1019CC00204B1A68D2075CBF01221A601E4B1A68A2
:1019DC00D0075CBF01221A601C4B1A68D1075CBF90
:1019EC0001221A601A4B1A68D2075CBF01221A60D6
:1019FC00184B1A68D0075CBF01221A60164B1A6884
:101A0C00D1075CBF01221A60144B1A68D2075CBF65
:101A1C0001221A60124B1A68D0075CBF01221A60AF
:101A2C00104B1A68D1075CBF01221A600E4B1A6862
:101A3C00D2075CBF01221A60704700BFB0050020BE
:101A4C00AC050020A8050020A4050020A00500205E
:101A5C009C0500209805002094050020900500208E
:101A6C008C0500208805002084050020244B1A6872
:101A7C00D0075CBF01221A60224B1A68D1075CBFE9
:101A8C0001221A60204B1A68D2075CBF01221A602F
:101A9C001E4B1A68D0075CBF01221A601C4B1A68D7
:101AAC00D1075CBF01221A601A4B1A68D2075CBFBF
:101ABC0001221A60184B1A68D0075CBF01221A6009
:101ACC00164B1A68D1075CBF01221A60144B1A68B6
:101ADC00D2075CBF01221A60124B1A68D0075CBF98
:101AEC0001221A60104B1A68D1075CBF01221A60E0
:101AFC000E4B1A68D2075CBF01221A60704700BFF8
:101B0C00E0050020DC050020D8050020D4050020CD
:101B1C00D0050020CC050020C8050020C4050020FD
:101B2C00C0050020BC050020B8050020B40500202D
:101B3C00184B1A68D1075CBF01221A60164B1A6841
:101B4C00D2075CBF01221A60144B1A68D0075CBF25
:101B5C0001221A60124B1A68D1075CBF01221A606D
:101B6C00104B1A68D2075CBF01221A600E4B1A6820
:101B7C00D0075CBF01221A600C4B1A68D1075CBFFE
:101B8C0001221A600A4B1A68D2075CBF01221A6044
:101B9C00704700BF00060020FC050020F80500205F
:101BAC00F4050020F0050020EC050020E8050020DD
:101BBC00E405002081F0004102E000BF83F0004307
:101BCC0030B54FEA41044FEA430594EA050F08BFCC
:101BDC0090EA020F1FBF54EA000C55EA020C7FEA90
:101BEC00645C7FEA655C00F0E2804FEA5454D4EB0D
:101BFC005555B8BF6D420CDD2C4480EA020281EAD7
:101C0C00030382EA000083EA010180EA020281EA0E
:101C1C000303362D88BF30BD11F0004F4FEA013160
:101C2C004FF4801C4CEA113102D0404261EB41016F
:101C3C0013F0004F4FEA03334CEA133302D05242F5
:101C4C0063EB430394EA050F00F0A780A4F10104B1
:101C5C00D5F1200E0DDB02FA0EFC22FA05F28018EB
:101C6C0041F1000103FA0EF2801843FA05F35941D1
:101C7C000EE0A5F120050EF1200E012A03FA0EFC50
:101C8C0028BF4CF0020C43FA05F3C01851EBE3717A
:101C9C0001F0004507D54FF0000EDCF1000C7EEB97
:101CAC0000006EEB0101B1F5801F1BD3B1F5001FD5
:101CBC000CD349085FEA30004FEA3C0C04F10104F4
:101CCC004FEA445212F5800F80F09A80BCF1004F1D
:101CDC0008BF5FEA500C50F1000041EB045141EA9F
:101CEC00050130BD5FEA4C0C404141EB010111F4A0
:101CFC00801FA4F10104E9D191F0000F04BF01464B
:101D0C000020B1FA81F308BF2033A3F10B03B3F128
:101D1C0020020CDA0C3208DD02F1140CC2F10C02B8
:101D2C0001FA0CF021FA02F10CE002F11402D8BF16
:101D3C00C2F1200C01FA02F120FA0CFCDCBF41EAE2
:101D4C000C019040E41AA2BF01EB0451294330BDB1
:101D5C006FEA04041F3C1CDA0C340EDC04F114048E
:101D6C00C4F1200220FA04F001FA02F340EA030065
:101D7C0021FA04F345EA030130BDC4F10C04C4F1AB
:101D8C00200220FA02F001FA04F340EA030029468B
:101D9C0030BD21FA04F0294630BD94F0000F83F4D5
:101DAC00801306BF81F480110134013D4EE77FEAB8
:101DBC00645C18BF7FEA655C29D094EA050F08BF04
:101DCC0090EA020F05D054EA000C04BF19461046E5
:101DDC0030BD91EA030F1EBF0021002030BD5FEA29
:101DEC00545C05D14000494128BF41F0004130BD51
:101DFC0014F580043CBF01F5801130BD01F00045A5
:101E0C0045F0FE4141F470014FF0000030BD7FEA17
:101E1C00645C1ABF194610467FEA655C1CBF0B4612
:101E2C00024650EA013406BF52EA033591EA030F29
:101E3C0041F4002130BD00BF90F0000F04BF002121
:101E4C00704730B54FF4806404F132044FF0000554
:101E5C004FF0000150E700BF90F0000F04BF0021CD
:101E6C00704730B54FF4806404F1320410F0004533
:101E7C0048BF40424FF000013EE700BF42004FEA2E
:101E8C00E2014FEA31014FEA02701FBF12F07F43AB
:101E9C0093F07F4F81F06051704792F0000F14BFA8
:101EAC0093F07F4F704730B54FF4607401F00045EC
:101EBC0021F0004120E700BF50EA010208BF704743
:101ECC0030B54FF000050AE050EA010208BF704738
:101EDC0030B511F0004502D5404261EB41014FF4A1
:101EEC00806404F132045FEA915C3FF4DCAE4FF0A5
:101EFC0003025FEADC0C18BF03325FEADC0C18BF8C
:101F0C00033202EBDC02C2F1200300FA03FC20FADC
:101F1C0002F001FA03FE40EA0E0021FA02F1144429
:101F2C00C1E600BF70B54FF0FF0C4CF4E06C1CEA3E
:101F3C0011541DBF1CEA135594EA0C0F95EA0C0FB3
:101F4C0000F0DEF82C4481EA030621EA4C5123EA26
:101F5C004C5350EA013518BF52EA033541F4801155
:101F6C0043F4801338D0A0FB02CE4FF00005E1FB08
:101F7C0002E506F00042E0FB03E54FF00006E1FB52
:101F8C0003569CF0000F18BF4EF0010EA4F1FF0495
:101F9C00B6F5007F64F5407404D25FEA4E0E6D41D5
:101FAC0046EB060642EAC62141EA55514FEAC520E6
:101FBC0040EA5E504FEACE2EB4F1FD0C88BFBCF562
:101FCC00E06F1ED8BEF1004F08BF5FEA500E50F113
:101FDC00000041EB045170BD06F0004646EA0101D9
:101FEC0040EA020081EA0301B4EB5C04C2BFD4EB0B
:101FFC000C0541EA045170BD41F480114FF0000E04
:10200C00013C00F3AB8014F1360FDEBF002001F071
:10201C00004170BDC4F10004203C35DA0C341BDCEB
:10202C0004F11404C4F1200500FA05F320FA04F0BD
:10203C0001FA05F240EA020001F0004221F00041F1
:10204C0010EBD37021FA04F642EB06015EEA430E64
:10205C0008BF20EAD37070BDC4F10C04C4F1200594
:10206C0000FA04F320FA05F001FA04F240EA020047
:10207C0001F0004110EBD37041F100015EEA430E18
:10208C0008BF20EAD37070BDC4F1200500FA05F238
:10209C004EEA020E20FA04F301FA05F243EA0203B7
:1020AC0021FA04F001F0004121FA04F220EA0200C6
:1020BC0000EBD3705EEA430E08BF20EAD37070BD0C
:1020CC0094F0000F0FD101F00046400041EB0101EC
:1020DC0011F4801F08BF013CF7D041EA060195F0CE
:1020EC00000F18BF704703F00046520043EB030388
:1020FC0013F4801F08BF013DF7D043EA0603704775
:10210C0094EA0C0F0CEA135518BF95EA0C0F0CD07F
:10211C0050EA410618BF52EA4306D1D181EA0301C5
:10212C0001F000414FF0000070BD50EA410606BFBF
:10213C001046194652EA430619D094EA0C0F02D104
:10214C0050EA013613D195EA0C0F05D152EA033649
:10215C001CBF104619460AD181EA030101F0004167
:10216C0041F0FE4141F470014FF0000070BD41F0B0
:10217C00FE4141F4780170BD70B54FF0FF0C4CF48A
:10218C00E06C1CEA11541DBF1CEA135594EA0C0FA9
:10219C0095EA0C0F00F0A7F8A4EB050481EA030EF6
:1021AC0052EA03354FEA013100F088804FEA0333DD
:1021BC004FF0805545EA131343EA12634FEA0222AB
:1021CC0045EA111545EA10654FEA00260EF000416C
:1021DC009D4208BF964244F1FD0404F5407402D2BE
:1021EC005B084FEA3202B61A65EB03055B084FEA4F
:1021FC0032024FF480104FF4002CB6EB020E75EB4C
:10220C00030E22BFB61A754640EA0C005B084FEA73
:10221C003202B6EB020E75EB030E22BFB61A7546F0
:10222C0040EA5C005B084FEA3202B6EB020E75EB3B
:10223C00030E22BFB61A754640EA9C005B084FEAB3
:10224C003202B6EB020E75EB030E22BFB61A7546C0
:10225C0040EADC0055EA060E18D04FEA051545EAAF
:10226C0016754FEA06164FEAC30343EA52734FEA58
:10227C00C2025FEA1C1CC0D111F4801F0BD141EAD1
:10228C0000014FF000004FF0004CB6E711F4801F36
:10229C0004BF01430020B4F1FD0C88BFBCF5E06F16
:1022AC003FF6AFAEB5EB030C04BFB6EB020C5FEA26
:1022BC00500C50F1000041EB045170BD0EF0004E7B
:1022CC004EEA113114EB5C04C2BFD4EB0C0541EAAD
:1022DC00045170BD41F480114FF0000E013C90E6AA
:1022EC0045EA060E8DE60CEA135594EA0C0F08BF6E
:1022FC0095EA0C0F3FF43BAF94EA0C0F0AD150EA6D
:10230C0001347FF434AF95EA0C0F7FF425AF1046FF
:10231C0019462CE795EA0C0F06D152EA03353FF427
:10232C00FDAE1046194622E750EA410618BF52EAA4
:10233C0043067FF4C5AE50EA41047FF40DAF52EA78
:10234C0043057FF4EBAE12E74FF0FF3C06E000BF15
:10235C004FF0010C02E000BF4FF0010C4DF804CD22
:10236C004FEA410C7FEA6C5C4FEA430C18BF7FEAE2
:10237C006C5C1BD001B050EA410C0CBF52EA430C10
:10238C0091EA030F02BF90EA020F0020704710F190
:10239C00000F91EA030F58BF994208BF90422CBF1F
:1023AC00D8176FEAE37040F0010070474FEA410C18
:1023BC007FEA6C5C02D150EA013C07D14FEA430C36
:1023CC007FEA6C5CD6D152EA033CD3D05DF8040BA7
:1023DC00704700BF8446104662468C4619466346D9
:1023EC0000E000BF01B5FFF7B7FF002848BF10F1B0
:1023FC00000F01BD4DF808EDFFF7F4FF0CBF0120F5
:10240C0000205DF808FB00BF4DF808EDFFF7EAFF70
:10241C0034BF012000205DF808FB00BF4DF808ED2B
:10242C00FFF7E0FF94BF012000205DF808FB00BF20
:10243C004DF808EDFFF7CEFF94BF012000205DF8AA
:10244C0008FB00BF4DF808EDFFF7C4FF34BF0120B7
:10245C0000205DF808FB00BF4A0011D212F50012F3
:10246C0011D20DD56FF47873B3EB62520ED44FEAE0
:10247C00C12343F0004343EA505323FA02F0704760
:10248C004FF00000704750EA013002D14FF0FF309E
:10249C0070474FF00000704780F0004002E000BF32
:1024AC0081F0004142001FBF5FEA410392EA030F33
:1024BC007FEA226C7FEA236C6AD04FEA1262D2EB7D
:1024CC001363C1BFD218414048404140B8BF5B4282
:1024DC00192B88BF704710F0004F40F4000020F01B
:1024EC007F4018BF404211F0004F41F4000121F031
:1024FC007F4118BF494292EA030F3FD0A2F101027B
:10250C0041FA03FC10EB0C00C3F1200301FA03F1B8
:10251C0000F0004302D5494260EB4000B0F5000FDB
:10252C0013D3B0F1807F06D340084FEA310102F19A
:10253C000102FE2A51D2B1F1004F40EBC25008BF4C
:10254C0020F0010040EA03007047490040EB000016
:10255C0010F4000FA2F10102EDD1B0FA80FCACF145
:10256C00080CB2EB0C0200FA0CF0AABF00EBC25044
:10257C0052421843BCBFD0401843704792F0000F32
:10258C0081F4000106BF80F400000132013BB5E785
:10259C004FEA41037FEA226C18BF7FEA236C21D0FB
:1025AC0092EA030F04D092F0000F08BF0846704760
:1025BC0090EA010F1CBF0020704712F07F4F04D12E
:1025CC00400028BF40F00040704712F100723CBF41
:1025DC0000F50000704700F0004343F0FE4040F46B
:1025EC00000070477FEA226216BF08467FEA236329
:1025FC000146420206BF5FEA412390EA010F40F414
:10260C00800070474FF0000304E000BF10F000435F
:10261C0048BF40425FEA000C08BF704743F0964346
:10262C0001464FF000001CE050EA010208BF704761
:10263C004FF000030AE000BF50EA010208BF7047E8
:10264C0011F0004302D5404261EB41015FEA010CFD
:10265C0002BF84460146002043F0B64308BFA3F1F5
:10266C008053A3F50003BCFA8CF2083AA3EBC253D7
:10267C0010DB01FA02FC634400FA02FCC2F12002F6
:10268C00BCF1004F20FA02F243EB020008BF20F02D
:10269C000100704702F1200201FA02FCC2F1200293
:1026AC0050EA4C0021FA02F243EB020008BF20EA88
:1026BC00DC7070474FF0FF0C1CEAD0521EBF1CEAB6
:1026CC00D15392EA0C0F93EA0C0F6FD01A4480EAA4
:1026DC00010C400218BF5FEA41211ED04FF000638D
:1026EC0043EA501043EA5111A0FB01310CF00040B9
:1026FC00B1F5000F3EBF490041EAD3715B0040EADF
:10270C00010062F17F02FD2A1DD8B3F1004F40EBAE
:10271C00C25008BF20F00100704790F0000F0CF081
:10272C00004C08BF49024CEA502040EA51207F3A45
:10273C00C2BFD2F1FF0340EAC250704740F4000020
:10274C004FF00003013A5DDC12F1190FDCBF00F011
:10275C0000407047C2F10002410021FA02F1C2F1BF
:10276C00200200FA02FC5FEA310040F1000053EA5B
:10277C004C0308BF20EADC70704792F0000F00F0A9
:10278C00004C02BF400010F4000F013AF9D040EAAF
:10279C000C0093F0000F01F0004C02BF490011F443
:1027AC00000F013BF9D041EA0C018FE70CEAD15341
:1027BC0092EA0C0F18BF93EA0C0F0AD030F0004CC1
:1027CC0018BF31F0004CD8D180EA010000F0004075
:1027DC00704790F0000F17BF90F0004F084691F033
:1027EC00000F91F0004F14D092EA0C0F01D142026D
:1027FC000FD193EA0C0F03D14B0218BF084608D136
:10280C0080EA010000F0004040F0FE4040F400007F
:10281C00704740F0FE4040F4400070474FF0FF0C12
:10282C001CEAD0521EBF1CEAD15392EA0C0F93EA59
:10283C000C0F69D0A2EB030280EA010C49024FEAAB
:10284C00402037D04FF0805343EA111143EA101364
:10285C000CF000408B4238BF5B0042F17D024FF41C
:10286C00000C8B4224BF5B1A40EA0C00B3EB510FF7
:10287C0024BFA3EB510340EA5C00B3EB910F24BFE0
:10288C00A3EB910340EA9C00B3EBD10F24BFA3EB65
:10289C00D10340EADC001B0118BF5FEA1C1CE0D12D
:1028AC00FD2A3FF650AF8B4240EBC25008BF20F0E0
:1028BC00010070470CF0004C4CEA50207F32C2BF34
:1028CC00D2F1FF0340EAC250704740F400004FF0D1
:1028DC000003013A37E792F0000F00F0004C02BF02
:1028EC00400010F4000F013AF9D040EA0C0093F0CC
:1028FC00000F01F0004C02BF490011F4000F013B26
:10290C00F9D041EA0C0195E70CEAD15392EA0C0F8D
:10291C0008D142027FF47DAF93EA0C0F7FF470AFC5
:10292C00084676E793EA0C0F04D14B023FF44CAF08
:10293C0008466EE730F0004C18BF31F0004CCAD19D
:10294C0030F000427FF45CAF31F000437FF43CAFD9
:10295C005FE700BF53B94AB9002908BF00281CBF64
:10296C004FF0FF314FF0FF3000F0A6B9ADF1080C7D
:10297C006DE904CE00F02AF8DDF804E0DDE902236D
:10298C0004B07047D0B500220E4B06460F46FFF739
:10299C00C9FAFFF761FD0446FFF74EFA00220A4B15
:1029AC00FFF7C0FA02460B4630463946FFF706F9E8
:1029BC00FFF752FD2346002242EA00021046194658
:1029CC00D0BD00BF0000F03D0000F0412DE9F04FFC
:1029DC008C460C460546099E002B4FD18A42174661
:1029EC006BD9B2FA82FEBEF1000F0BD0CEF12005EE
:1029FC0020FA05F501FA0EF345EA030C02FA0EF77C
:102A0C0000FA0EF5390CBCFBF1F0BAB201FB10C3A5
:102A1C0000FB02F84FEA154C4CEA0344A04509D9D7
:102A2C00E41900F1FF3380F02881A04540F22581A4
:102A3C0002383C44C8EB0404B4FBF1F301FB134C27
:102A4C0003FB02F2ACB244EA0C418A4209D9C9191F
:102A5C0003F1FF3480F00F818A4240F20C81023B7B
:102A6C0039448A1A43EA00400021002E63D022FA2E
:102A7C000EF2002386E80C00BDE8F08F8B4207D9DC
:102A8C00002E56D0002186E811000846BDE8F08FD4
:102A9C00B3FA83F1002940F09380A34202D382421F
:102AAC0000F2FE80851A64EB03039C460120002E85
:102ABC0041D086E82010BDE8F08F12B90127B7FB92
:102ACC00F2F7B7FA87FEBEF1000F36D1E41B4FEADE
:102ADC0017481FFA87F90121B4FBF8F308FB1344DC
:102AEC0009FB03F24FEA154C4CEA0444A24207D905
:102AFC00E41903F1FF3002D2A24200F2D380034664
:102B0C00A41AB4FBF8F008FB104809FB00F9ACB2AE
:102B1C0044EA0842914507D9D21900F1FF3402D298
:102B2C00914500F2BA802046C9EB020240EA03400C
:102B3C009BE731463046BDE8F08F07FA0EF7CEF131
:102B4C00200C24FA0CF34FEA1748B3FBF8FA1FFADF
:102B5C0087F908FB1A3520FA0CFC04FA0EF40AFB70
:102B6C0009FB4CEA040C4FEA1C4242EA05439B4524
:102B7C0000FA0EF50AD9DB190AF1FF3280F08B80CE
:102B8C009B4540F28880AAF1020A3B44CBEB03033D
:102B9C00B3FBF8F008FB103300FB09F41FFA8CFCB4
:102BAC004CEA03439C4207D9DB1900F1FF326ED289
:102BBC009C426CD902383B441C1B40EA0A418BE70F
:102BCC00C1F1200E8B4022FA0EFC4CEA030C24FAC5
:102BDC000EF74FEA1C49B7FBF9FA1FFA8CF309FB05
:102BEC001A7720FA0EF88C400AFB03F548EA040425
:102BFC004FEA144848EA0747BD4202FA01F200FACC
:102C0C0001FB09D917EB0C070AF1FF3041D2BD4289
:102C1C003FD9AAF1020A67447F1BB7FBF9F509FB00
:102C2C00157705FB03F3A4B244EA0747BB4208D966
:102C3C0017EB0C0705F1FF3027D2BB4225D9023D1B
:102C4C00674445EA0A40A0FB0289FF1A4F454546F6
:102C5C004C4614D329D066B3BBEB050367EB0407D2
:102C6C0007FA0EFECB40CF404EEA030386E88800FD
:102C7C000021BDE8F08F2346F3E61846DAE6B8EB00
:102C8C00020569EB0C040138E5E70546D9E7104667
:102C9C0092E78246C0E7924678E702383A4443E727
:102CAC00084604E7023B3C442AE7C345E7D33C46CD
:102CBC00D1E73146BDE8F08F704700BF10B5054C29
:102CCC0013462CB10A4601460220AFF3008010BD1A
:102CDC00204610BD0000000010B5431E0A4491426E
:102CEC0004D011F8014B03F8014FF8E710BD03466F
:102CFC000244934202D003F8011BFAE7704700002C
:102D0C0038B5124B05461C68A36BD3B91820FDF7D8
:102D1C004FFD43F20E33A06303804AF6CD3343805C
:102D2C0041F2342383804EF26D63C3804DF6EC6325
:102D3C000381052343810B23838101220023C0E9F6
:102D4C000423A36B00221D615A6138BD640000206E
:102D5C00024B0146186800F003B800BF6400002065
:102D6C0070B5064608460C4600F00DF8451C294681
:102D7C003046FDF73DFD064618B12A462146FFF7C1
:102D8C00ABFF304670BD034613F8012B002AFBD174
:102D9C00181A0138704700001D000A085D000A0867
:102DAC0089000A088D000A08000000004469646E5E
:102DBC0027742066696E6420536931313435004FB5
:102DCC004B210055565669730055564952005556BD
:102DDC004964780000000000000000000D080A089B
:102DEC000F080A08626175640053657269616C00B2
:102DFC0055534253657269616C310074797065008A
:102E0C00706172616D00636D6400696400686E646A
:102E1C00007374726D0066696C74006C766C006182
:102E2C00646448616E646C65720072656D6F766582
:102E3C0048616E646C657200656E756D48616E6498
:102E4C006C657273004A534F4E53747265616D4CCE
:102E5C006F6748616E646C6572006170700025303C
:102E6C0031307520005D20002564002C20002829BD
:102E7C003A2000205B00636F6465203D20002569CB
:102E8C000064657461696C73203D20000D0A006656
:102E9C00006C6E00666E00636F646500646574613F
:102EAC00696C006E6F6E6500747261636500696EAB
:102EBC00666F007761726E006572726F720070617E
:102ECC006E696300616C6C005A00252B3033643AD8
:102EDC00253032750025592D256D2D256454254836
:102EEC003A254D3A2553257A0061736374696D65F3
:102EFC00000000000000000000000000210D0A0886
:102F0C00270D0A086B0D0A08350D0A08230D0A084F
:102F1C000000000000000000B9120A08A9120A08FB
:102F2C00AB120A08000000000000000075130A082C
:102F3C00C5130A08D3130A08730A0A08B1130A083E
:102F4C0077130A088D130A08BF130A08A3130A087B
:102F5C0071130A0800000000000000000D150A089B
:102F6C005D150A086B150A08730A0A0821150A0868
:102F7C0043150A082F150A0857150A080F150A08D1
:102F8C0013150A08000000000000000031160A08A2
:102F9C007B160A0853160A0833160A085B160A0829
:102FAC0063160A086B160A0873160A08000000005C
:102FBC00000000007D170A0873170A0869170A0831
:102FCC00E7160A08490B0A085D170A0851170A0880
:102FDC0049170A083F170A0835170A08F1160A0894
:102FEC0000000000000000009D170A08A7170A083F
:102FFC00B1170A08BB170A08C5170A08D1170A081F
:10300C00DD170A08E9170A08F1170A08FB170A085E
:10301C0005180A0800000000000000000000000075
:10302C000000000000000000000000000000000094
:10303C000000000000000000000000000000000084
:10304C000000000000000000000000000000000074
:10305C000000000000000000000000000000000064
:10306C000000000000000000000000000000000054
:10307C00000000004300000021020A08AD040A0809
:10308C0045080A08650B0A08750B0A08CD0B0A08D7
:10309C0089170A0855180A0869180A08AD180A0889
:1030AC0031190A08B5190A08791A0A083D1B0A08C9
:0430BC000000000010
:0830C00018F9FF7F0100000078
:0430C8000000000004
:1030CC00F52E0A080000000020300A0840300A08DB
:1030DC0060300A0800000000000000000000000042
:1030EC000000000080300A08000000000000000012
:1030FC0000000000000000000000000000000000C4
:10310C0000000000000000000000000000000000B3
:10311C0000000000000000000000000000000000A3
:08312C00000000000400002077
:10313400FFFFFFFF00000102030405060708090A58
:103144000B0C0D0E0F101112131415161718191A53
:083154001B1C1D1E1F2028009A
:04315C00785634125B
:04000005080A001CC9
:00000001FF
